{
  "contractName": "Badium",
  "abi": [
    {
      "constant": false,
      "inputs": [],
      "name": "renounceOwnership",
      "outputs": [],
      "payable": false,
      "stateMutability": "nonpayable",
      "type": "function"
    },
    {
      "constant": true,
      "inputs": [],
      "name": "owner",
      "outputs": [
        {
          "name": "",
          "type": "address"
        }
      ],
      "payable": false,
      "stateMutability": "view",
      "type": "function"
    },
    {
      "constant": true,
      "inputs": [],
      "name": "isOwner",
      "outputs": [
        {
          "name": "",
          "type": "bool"
        }
      ],
      "payable": false,
      "stateMutability": "view",
      "type": "function"
    },
    {
      "constant": false,
      "inputs": [
        {
          "name": "newOwner",
          "type": "address"
        }
      ],
      "name": "transferOwnership",
      "outputs": [],
      "payable": false,
      "stateMutability": "nonpayable",
      "type": "function"
    },
    {
      "constant": false,
      "inputs": [
        {
          "name": "_amount",
          "type": "uint256"
        }
      ],
      "name": "receiveFundToOwner",
      "outputs": [
        {
          "name": "",
          "type": "bool"
        }
      ],
      "payable": true,
      "stateMutability": "payable",
      "type": "function"
    },
    {
      "inputs": [],
      "payable": false,
      "stateMutability": "nonpayable",
      "type": "constructor"
    },
    {
      "anonymous": false,
      "inputs": [
        {
          "indexed": true,
          "name": "previousOwner",
          "type": "address"
        },
        {
          "indexed": true,
          "name": "newOwner",
          "type": "address"
        }
      ],
      "name": "OwnershipTransferred",
      "type": "event"
    },
    {
      "anonymous": false,
      "inputs": [
        {
          "indexed": true,
          "name": "_from",
          "type": "address"
        },
        {
          "indexed": true,
          "name": "_to",
          "type": "address"
        },
        {
          "indexed": false,
          "name": "_value",
          "type": "uint256"
        }
      ],
      "name": "Transfer",
      "type": "event"
    },
    {
      "anonymous": false,
      "inputs": [
        {
          "indexed": true,
          "name": "_owner",
          "type": "address"
        },
        {
          "indexed": true,
          "name": "_spender",
          "type": "address"
        },
        {
          "indexed": false,
          "name": "_value",
          "type": "uint256"
        }
      ],
      "name": "Approval",
      "type": "event"
    },
    {
      "constant": true,
      "inputs": [],
      "name": "name",
      "outputs": [
        {
          "name": "",
          "type": "string"
        }
      ],
      "payable": false,
      "stateMutability": "view",
      "type": "function"
    },
    {
      "constant": true,
      "inputs": [],
      "name": "symbol",
      "outputs": [
        {
          "name": "",
          "type": "string"
        }
      ],
      "payable": false,
      "stateMutability": "view",
      "type": "function"
    },
    {
      "constant": true,
      "inputs": [],
      "name": "decimals",
      "outputs": [
        {
          "name": "",
          "type": "uint8"
        }
      ],
      "payable": false,
      "stateMutability": "view",
      "type": "function"
    },
    {
      "constant": true,
      "inputs": [],
      "name": "totalSupply",
      "outputs": [
        {
          "name": "",
          "type": "uint256"
        }
      ],
      "payable": false,
      "stateMutability": "view",
      "type": "function"
    },
    {
      "constant": true,
      "inputs": [
        {
          "name": "_holder",
          "type": "address"
        }
      ],
      "name": "balanceOf",
      "outputs": [
        {
          "name": "balance",
          "type": "uint256"
        }
      ],
      "payable": false,
      "stateMutability": "view",
      "type": "function"
    },
    {
      "constant": false,
      "inputs": [
        {
          "name": "_to",
          "type": "address"
        },
        {
          "name": "_value",
          "type": "uint256"
        }
      ],
      "name": "transfer",
      "outputs": [
        {
          "name": "success",
          "type": "bool"
        }
      ],
      "payable": false,
      "stateMutability": "nonpayable",
      "type": "function"
    },
    {
      "constant": false,
      "inputs": [
        {
          "name": "_from",
          "type": "address"
        },
        {
          "name": "_to",
          "type": "address"
        },
        {
          "name": "_value",
          "type": "uint256"
        }
      ],
      "name": "transferFrom",
      "outputs": [
        {
          "name": "success",
          "type": "bool"
        }
      ],
      "payable": false,
      "stateMutability": "nonpayable",
      "type": "function"
    },
    {
      "constant": false,
      "inputs": [
        {
          "name": "_spender",
          "type": "address"
        },
        {
          "name": "_value",
          "type": "uint256"
        }
      ],
      "name": "approve",
      "outputs": [
        {
          "name": "success",
          "type": "bool"
        }
      ],
      "payable": false,
      "stateMutability": "nonpayable",
      "type": "function"
    },
    {
      "constant": true,
      "inputs": [
        {
          "name": "_holder",
          "type": "address"
        },
        {
          "name": "_spender",
          "type": "address"
        }
      ],
      "name": "allowance",
      "outputs": [
        {
          "name": "remaining",
          "type": "uint256"
        }
      ],
      "payable": false,
      "stateMutability": "view",
      "type": "function"
    },
    {
      "constant": false,
      "inputs": [
        {
          "name": "receiver",
          "type": "address"
        }
      ],
      "name": "addReceiver",
      "outputs": [
        {
          "name": "",
          "type": "bool"
        }
      ],
      "payable": false,
      "stateMutability": "nonpayable",
      "type": "function"
    },
    {
      "constant": false,
      "inputs": [
        {
          "name": "receiver",
          "type": "address"
        }
      ],
      "name": "removeReceiver",
      "outputs": [
        {
          "name": "",
          "type": "bool"
        }
      ],
      "payable": false,
      "stateMutability": "nonpayable",
      "type": "function"
    },
    {
      "constant": false,
      "inputs": [
        {
          "name": "_amount",
          "type": "uint256"
        }
      ],
      "name": "mint",
      "outputs": [
        {
          "name": "",
          "type": "bool"
        }
      ],
      "payable": false,
      "stateMutability": "nonpayable",
      "type": "function"
    },
    {
      "constant": false,
      "inputs": [
        {
          "name": "_holder",
          "type": "address"
        },
        {
          "name": "_amount",
          "type": "uint256"
        }
      ],
      "name": "burn",
      "outputs": [
        {
          "name": "",
          "type": "bool"
        }
      ],
      "payable": false,
      "stateMutability": "nonpayable",
      "type": "function"
    },
    {
      "constant": false,
      "inputs": [],
      "name": "burnAll",
      "outputs": [
        {
          "name": "",
          "type": "bool"
        }
      ],
      "payable": false,
      "stateMutability": "nonpayable",
      "type": "function"
    },
    {
      "constant": true,
      "inputs": [],
      "name": "getCurrentCirculatorySystem",
      "outputs": [
        {
          "name": "",
          "type": "uint256"
        }
      ],
      "payable": false,
      "stateMutability": "view",
      "type": "function"
    },
    {
      "constant": false,
      "inputs": [
        {
          "name": "_index",
          "type": "uint256"
        }
      ],
      "name": "selectCirculatorySystem",
      "outputs": [
        {
          "name": "",
          "type": "bool"
        }
      ],
      "payable": false,
      "stateMutability": "nonpayable",
      "type": "function"
    },
    {
      "constant": false,
      "inputs": [
        {
          "name": "_amount",
          "type": "uint256"
        }
      ],
      "name": "buy",
      "outputs": [
        {
          "name": "",
          "type": "bool"
        }
      ],
      "payable": true,
      "stateMutability": "payable",
      "type": "function"
    }
  ],
  "bytecode": "0x608060405234801561001057600080fd5b50336000806101000a81548173ffffffffffffffffffffffffffffffffffffffff021916908373ffffffffffffffffffffffffffffffffffffffff1602179055506000809054906101000a900473ffffffffffffffffffffffffffffffffffffffff1673ffffffffffffffffffffffffffffffffffffffff16600073ffffffffffffffffffffffffffffffffffffffff167f8be0079c531659141344cd1fd0a4f28419497f9722a3daafe3b4186f6b6457e060405160405180910390a3600060018190555060006002819055506298968060046000600154815260200190815260200160002081905550600460006001548152602001908152602001600020546003600061012b610181640100000000026401000000009004565b73ffffffffffffffffffffffffffffffffffffffff1673ffffffffffffffffffffffffffffffffffffffff16815260200190815260200160002060006001548152602001908152602001600020819055506101aa565b60008060009054906101000a900473ffffffffffffffffffffffffffffffffffffffff16905090565b612427806101b96000396000f3fe608060405260043610610152576000357c0100000000000000000000000000000000000000000000000000000000900480638da5cb5b116100c8578063a0712d681161008c578063a0712d68146106cd578063a9059cbb14610720578063d96a094a14610793578063dd62ed3e146107d9578063f2fde38b1461085e578063fe7869f5146108af57610152565b80638da5cb5b146105155780638f32d59b1461056c57806395d89b411461059b5780639975038c1461062b5780639dc29fac1461065a57610152565b8063594e67241161011a578063594e6724146103495780636552d8b41461039c57806369d83ed11461040557806370a082311461046e578063715018a6146104d35780638b5e9ca9146104ea57610152565b806306fdde0314610157578063095ea7b3146101e757806318160ddd1461025a57806323b872dd14610285578063313ce56714610318575b600080fd5b34801561016357600080fd5b5061016c6108f5565b6040518080602001828103825283818151815260200191508051906020019080838360005b838110156101ac578082015181840152602081019050610191565b50505050905090810190601f1680156101d95780820380516001836020036101000a031916815260200191505b509250505060405180910390f35b3480156101f357600080fd5b506102406004803603604081101561020a57600080fd5b81019080803573ffffffffffffffffffffffffffffffffffffffff16906020019092919080359060200190929190505050610932565b604051808215151515815260200191505060405180910390f35b34801561026657600080fd5b5061026f610ab9565b6040518082815260200191505060405180910390f35b34801561029157600080fd5b506102fe600480360360608110156102a857600080fd5b81019080803573ffffffffffffffffffffffffffffffffffffffff169060200190929190803573ffffffffffffffffffffffffffffffffffffffff16906020019092919080359060200190929190505050610ad6565b604051808215151515815260200191505060405180910390f35b34801561032457600080fd5b5061032d610cc8565b604051808260ff1660ff16815260200191505060405180910390f35b34801561035557600080fd5b506103826004803603602081101561036c57600080fd5b8101908080359060200190929190505050610cd0565b604051808215151515815260200191505060405180910390f35b3480156103a857600080fd5b506103eb600480360360208110156103bf57600080fd5b81019080803573ffffffffffffffffffffffffffffffffffffffff169060200190929190505050610dbb565b604051808215151515815260200191505060405180910390f35b34801561041157600080fd5b506104546004803603602081101561042857600080fd5b81019080803573ffffffffffffffffffffffffffffffffffffffff169060200190929190505050610e9a565b604051808215151515815260200191505060405180910390f35b34801561047a57600080fd5b506104bd6004803603602081101561049157600080fd5b81019080803573ffffffffffffffffffffffffffffffffffffffff169060200190929190505050610f79565b6040518082815260200191505060405180910390f35b3480156104df57600080fd5b506104e8610fd5565b005b3480156104f657600080fd5b506104ff611110565b6040518082815260200191505060405180910390f35b34801561052157600080fd5b5061052a61111a565b604051808273ffffffffffffffffffffffffffffffffffffffff1673ffffffffffffffffffffffffffffffffffffffff16815260200191505060405180910390f35b34801561057857600080fd5b50610581611143565b604051808215151515815260200191505060405180910390f35b3480156105a757600080fd5b506105b061119a565b6040518080602001828103825283818151815260200191508051906020019080838360005b838110156105f05780820151818401526020810190506105d5565b50505050905090810190601f16801561061d5780820380516001836020036101000a031916815260200191505b509250505060405180910390f35b34801561063757600080fd5b506106406111d7565b604051808215151515815260200191505060405180910390f35b34801561066657600080fd5b506106b36004803603604081101561067d57600080fd5b81019080803573ffffffffffffffffffffffffffffffffffffffff169060200190929190803590602001909291905050506112d9565b604051808215151515815260200191505060405180910390f35b3480156106d957600080fd5b50610706600480360360208110156106f057600080fd5b81019080803590602001909291905050506115ee565b604051808215151515815260200191505060405180910390f35b34801561072c57600080fd5b506107796004803603604081101561074357600080fd5b81019080803573ffffffffffffffffffffffffffffffffffffffff16906020019092919080359060200190929190505050611898565b604051808215151515815260200191505060405180910390f35b6107bf600480360360208110156107a957600080fd5b81019080803590602001909291905050506118b6565b604051808215151515815260200191505060405180910390f35b3480156107e557600080fd5b50610848600480360360408110156107fc57600080fd5b81019080803573ffffffffffffffffffffffffffffffffffffffff169060200190929190803573ffffffffffffffffffffffffffffffffffffffff1690602001909291905050506119fa565b6040518082815260200191505060405180910390f35b34801561086a57600080fd5b506108ad6004803603602081101561088157600080fd5b81019080803573ffffffffffffffffffffffffffffffffffffffff169060200190929190505050611a81565b005b6108db600480360360208110156108c557600080fd5b8101908080359060200190929190505050611b09565b604051808215151515815260200191505060405180910390f35b60606040805190810160405280600681526020017f42616469756d0000000000000000000000000000000000000000000000000000815250905090565b60008073ffffffffffffffffffffffffffffffffffffffff168373ffffffffffffffffffffffffffffffffffffffff16141515156109bb576040517f08c379a00000000000000000000000000000000000000000000000000000000081526004018080602001828103825260348152602001806123a06034913960400191505060405180910390fd5b81600660006109c8611b7c565b73ffffffffffffffffffffffffffffffffffffffff1673ffffffffffffffffffffffffffffffffffffffff16815260200190815260200160002060008573ffffffffffffffffffffffffffffffffffffffff1673ffffffffffffffffffffffffffffffffffffffff168152602001908152602001600020819055508273ffffffffffffffffffffffffffffffffffffffff16610a62611b7c565b73ffffffffffffffffffffffffffffffffffffffff167f8c5be1e5ebec7d5bd14f71427d1e84f3dd0314c0f7b2291e5b200ac8c7c3b925846040518082815260200191505060405180910390a36001905092915050565b600060046000600154815260200190815260200160002054905090565b6000610ae3848484611b84565b6000600660008673ffffffffffffffffffffffffffffffffffffffff1673ffffffffffffffffffffffffffffffffffffffff1681526020019081526020016000206000610b2e611b7c565b73ffffffffffffffffffffffffffffffffffffffff1673ffffffffffffffffffffffffffffffffffffffff168152602001908152602001600020549050828110151515610bc6576040517f08c379a000000000000000000000000000000000000000000000000000000000815260040180806020018281038252602f815260200180612371602f913960400191505060405180910390fd5b828103600660008773ffffffffffffffffffffffffffffffffffffffff1673ffffffffffffffffffffffffffffffffffffffff1681526020019081526020016000206000610c12611b7c565b73ffffffffffffffffffffffffffffffffffffffff1673ffffffffffffffffffffffffffffffffffffffff16815260200190815260200160002081905550610c58611b7c565b73ffffffffffffffffffffffffffffffffffffffff168573ffffffffffffffffffffffffffffffffffffffff167f8c5be1e5ebec7d5bd14f71427d1e84f3dd0314c0f7b2291e5b200ac8c7c3b925856040518082815260200191505060405180910390a360019150509392505050565b600080905090565b6000610cda611143565b1515610d4e576040517f08c379a00000000000000000000000000000000000000000000000000000000081526004018080602001828103825260208152602001807f4f776e61626c653a2063616c6c6572206973206e6f7420746865206f776e657281525060200191505060405180910390fd5b6002548211151515610dab576040517f08c379a000000000000000000000000000000000000000000000000000000000815260040180806020018281038252602e815260200180612159602e913960400191505060405180910390fd5b8160018190555060019050919050565b6000610dc5611143565b1515610e39576040517f08c379a00000000000000000000000000000000000000000000000000000000081526004018080602001828103825260208152602001807f4f776e61626c653a2063616c6c6572206973206e6f7420746865206f776e657281525060200191505060405180910390fd5b6000600560008473ffffffffffffffffffffffffffffffffffffffff1673ffffffffffffffffffffffffffffffffffffffff16815260200190815260200160002060006101000a81548160ff02191690831515021790555060019050919050565b6000610ea4611143565b1515610f18576040517f08c379a00000000000000000000000000000000000000000000000000000000081526004018080602001828103825260208152602001807f4f776e61626c653a2063616c6c6572206973206e6f7420746865206f776e657281525060200191505060405180910390fd5b6001600560008473ffffffffffffffffffffffffffffffffffffffff1673ffffffffffffffffffffffffffffffffffffffff16815260200190815260200160002060006101000a81548160ff02191690831515021790555060019050919050565b6000600360008373ffffffffffffffffffffffffffffffffffffffff1673ffffffffffffffffffffffffffffffffffffffff16815260200190815260200160002060006001548152602001908152602001600020549050919050565b610fdd611143565b1515611051576040517f08c379a00000000000000000000000000000000000000000000000000000000081526004018080602001828103825260208152602001807f4f776e61626c653a2063616c6c6572206973206e6f7420746865206f776e657281525060200191505060405180910390fd5b600073ffffffffffffffffffffffffffffffffffffffff166000809054906101000a900473ffffffffffffffffffffffffffffffffffffffff1673ffffffffffffffffffffffffffffffffffffffff167f8be0079c531659141344cd1fd0a4f28419497f9722a3daafe3b4186f6b6457e060405160405180910390a360008060006101000a81548173ffffffffffffffffffffffffffffffffffffffff021916908373ffffffffffffffffffffffffffffffffffffffff160217905550565b6000600154905090565b60008060009054906101000a900473ffffffffffffffffffffffffffffffffffffffff16905090565b60008060009054906101000a900473ffffffffffffffffffffffffffffffffffffffff1673ffffffffffffffffffffffffffffffffffffffff163373ffffffffffffffffffffffffffffffffffffffff1614905090565b60606040805190810160405280600381526020017f4241440000000000000000000000000000000000000000000000000000000000815250905090565b60006111e1611143565b1515611255576040517f08c379a00000000000000000000000000000000000000000000000000000000081526004018080602001828103825260208152602001807f4f776e61626c653a2063616c6c6572206973206e6f7420746865206f776e657281525060200191505060405180910390fd5b600254600019036001111515156112b7576040517f08c379a00000000000000000000000000000000000000000000000000000000081526004018080602001828103825260368152602001806123176036913960400191505060405180910390fd5b6002600081548092919060010191905055506002546001819055506001905090565b60006112e3611143565b1515611357576040517f08c379a00000000000000000000000000000000000000000000000000000000081526004018080602001828103825260208152602001807f4f776e61626c653a2063616c6c6572206973206e6f7420746865206f776e657281525060200191505060405180910390fd5b600073ffffffffffffffffffffffffffffffffffffffff168373ffffffffffffffffffffffffffffffffffffffff16141515156113df576040517f08c379a00000000000000000000000000000000000000000000000000000000081526004018080602001828103825260288152602001806123d46028913960400191505060405180910390fd5b6000600360008573ffffffffffffffffffffffffffffffffffffffff1673ffffffffffffffffffffffffffffffffffffffff16815260200190815260200160002060006001548152602001908152602001600020549050828110151515611491576040517f08c379a00000000000000000000000000000000000000000000000000000000081526004018080602001828103825260378152602001806122e06037913960400191505060405180910390fd5b828103600360008673ffffffffffffffffffffffffffffffffffffffff1673ffffffffffffffffffffffffffffffffffffffff168152602001908152602001600020600060015481526020019081526020016000208190555060046000600154815260200190815260200160002054831115151561155a576040517f08c379a00000000000000000000000000000000000000000000000000000000081526004018080602001828103825260288152602001806122b86028913960400191505060405180910390fd5b8260046000600154815260200190815260200160002060008282540392505081905550600073ffffffffffffffffffffffffffffffffffffffff168473ffffffffffffffffffffffffffffffffffffffff167fddf252ad1be2c89b69c2b068fc378daa952ba7f163c4a11628f55a4df523b3ef856040518082815260200191505060405180910390a3600191505092915050565b60006115f8611143565b151561166c576040517f08c379a00000000000000000000000000000000000000000000000000000000081526004018080602001828103825260208152602001807f4f776e61626c653a2063616c6c6572206973206e6f7420746865206f776e657281525060200191505060405180910390fd5b600460006001548152602001908152602001600020546000190382111515156116e0576040517f08c379a000000000000000000000000000000000000000000000000000000000815260040180806020018281038252602e81526020018061212b602e913960400191505060405180910390fd5b81600460006001548152602001908152602001600020600082825401925050819055506003600061170f61111a565b73ffffffffffffffffffffffffffffffffffffffff1673ffffffffffffffffffffffffffffffffffffffff16815260200190815260200160002060006001548152602001908152602001600020546000190382111515156117bb576040517f08c379a00000000000000000000000000000000000000000000000000000000081526004018080602001828103825260328152602001806122866032913960400191505060405180910390fd5b81600360006117c861111a565b73ffffffffffffffffffffffffffffffffffffffff1673ffffffffffffffffffffffffffffffffffffffff168152602001908152602001600020600060015481526020019081526020016000206000828254019250508190555061182a61111a565b73ffffffffffffffffffffffffffffffffffffffff16600073ffffffffffffffffffffffffffffffffffffffff167fddf252ad1be2c89b69c2b068fc378daa952ba7f163c4a11628f55a4df523b3ef846040518082815260200191505060405180910390a360019050919050565b60006118ac6118a5611b7c565b8484611b84565b6001905092915050565b6000806118c1611fdc565b111515611919576040517f08c379a00000000000000000000000000000000000000000000000000000000081526004018080602001828103825260218152602001806122656021913960400191505060405180910390fd5b6000662386f26fc1000061192b611fdc565b81151561193457fe5b0614801561195a575081662386f26fc1000061194e611fdc565b81151561195757fe5b04145b15156119b1576040517f08c379a00000000000000000000000000000000000000000000000000000000081526004018080602001828103825260278152602001806122076027913960400191505060405180910390fd5b6119ca6119bc61111a565b6119c4611b7c565b84611b84565b60003073ffffffffffffffffffffffffffffffffffffffff163190506119ef81611b09565b506001915050919050565b6000600660008473ffffffffffffffffffffffffffffffffffffffff1673ffffffffffffffffffffffffffffffffffffffff16815260200190815260200160002060008373ffffffffffffffffffffffffffffffffffffffff1673ffffffffffffffffffffffffffffffffffffffff16815260200190815260200160002054905092915050565b611a89611143565b1515611afd576040517f08c379a00000000000000000000000000000000000000000000000000000000081526004018080602001828103825260208152602001807f4f776e61626c653a2063616c6c6572206973206e6f7420746865206f776e657281525060200191505060405180910390fd5b611b0681611fe4565b50565b60008060009054906101000a900473ffffffffffffffffffffffffffffffffffffffff1673ffffffffffffffffffffffffffffffffffffffff166108fc839081150290604051600060405180830381858888f19350505050158015611b72573d6000803e3d6000fd5b5060019050919050565b600033905090565b600073ffffffffffffffffffffffffffffffffffffffff168373ffffffffffffffffffffffffffffffffffffffff1614151515611c0c576040517f08c379a000000000000000000000000000000000000000000000000000000000815260040180806020018281038252602481526020018061234d6024913960400191505060405180910390fd5b600073ffffffffffffffffffffffffffffffffffffffff168273ffffffffffffffffffffffffffffffffffffffff1614151515611c94576040517f08c379a00000000000000000000000000000000000000000000000000000000081526004018080602001828103825260278152602001806121ad6027913960400191505060405180910390fd5b600560008373ffffffffffffffffffffffffffffffffffffffff1673ffffffffffffffffffffffffffffffffffffffff16815260200190815260200160002060009054906101000a900460ff161515611d55576040517f08c379a000000000000000000000000000000000000000000000000000000000815260040180806020018281038252601f8152602001807f42616469756d20546f6b656e3a20496e76616c69642072656365697665722e0081525060200191505060405180910390fd5b6000600360008573ffffffffffffffffffffffffffffffffffffffff1673ffffffffffffffffffffffffffffffffffffffff16815260200190815260200160002060006001548152602001908152602001600020549050818110151515611e07576040517f08c379a000000000000000000000000000000000000000000000000000000000815260040180806020018281038252603781526020018061222e6037913960400191505060405180910390fd5b600360008473ffffffffffffffffffffffffffffffffffffffff1673ffffffffffffffffffffffffffffffffffffffff1681526020019081526020016000206000600154815260200190815260200160002054600019038211151515611eb8576040517f08c379a00000000000000000000000000000000000000000000000000000000081526004018080602001828103825260338152602001806121d46033913960400191505060405180910390fd5b818103600360008673ffffffffffffffffffffffffffffffffffffffff1673ffffffffffffffffffffffffffffffffffffffff168152602001908152602001600020600060015481526020019081526020016000208190555081600360008573ffffffffffffffffffffffffffffffffffffffff1673ffffffffffffffffffffffffffffffffffffffff16815260200190815260200160002060006001548152602001908152602001600020600082825401925050819055508273ffffffffffffffffffffffffffffffffffffffff168473ffffffffffffffffffffffffffffffffffffffff167fddf252ad1be2c89b69c2b068fc378daa952ba7f163c4a11628f55a4df523b3ef846040518082815260200191505060405180910390a350505050565b600034905090565b600073ffffffffffffffffffffffffffffffffffffffff168173ffffffffffffffffffffffffffffffffffffffff161415151561206c576040517f08c379a00000000000000000000000000000000000000000000000000000000081526004018080602001828103825260268152602001806121876026913960400191505060405180910390fd5b8073ffffffffffffffffffffffffffffffffffffffff166000809054906101000a900473ffffffffffffffffffffffffffffffffffffffff1673ffffffffffffffffffffffffffffffffffffffff167f8be0079c531659141344cd1fd0a4f28419497f9722a3daafe3b4186f6b6457e060405160405180910390a3806000806101000a81548173ffffffffffffffffffffffffffffffffffffffff021916908373ffffffffffffffffffffffffffffffffffffffff1602179055505056fe42616469756d20546f6b656e3a20546f74616c20737570706c79206578636565646564206d6178206c696d69742e42616469756d20546f6b656e3a20496e76616c69642063697263756c61746f72792073797374656d20696e6465784f776e61626c653a206e6577206f776e657220697320746865207a65726f206164647265737342616469756d20546f6b656e3a20496e76616c696420526563697069656e74204164647265737342616469756d20546f6b656e3a2042616c616e6365206c696d697420657863656564656420666f7220526563697069656e742e42616469756d20546f6b656e3a20496e76616c6964205472616e73616374696f6e2056616c756542616469756d20546f6b656e3a205472616e7366657220616d6f756e7420657863656564732062616c616e6365206f662073656e64657242616469756d20546f6b656e3a20496e76616c6964205472616e73616374696f6e42616469756d20546f6b656e3a2042616c616e6365206f66206f776e6572206578636565646564206d6178206c696d69742e42616469756d20546f6b656e3a20496e73756666696369656e7420746f74616c20737570706c792e42616469756d20546f6b656e3a206275726e20616d6f756e7420657863656564732062616c616e6365206f662074686520686f6c64657242616469756d20546f6b656e3a2043697263756c61746f72792053797374656d20636f756e74206c696d69742065786365656465642e42616469756d20546f6b656e3a20496e76616c69642053656e646572204164647265737342616469756d20546f6b656e3a207472616e7366657220616d6f756e74206578636565647320616c6c6f77616e636542616469756d20546f6b656e3a20617070726f766520746f2074686520696e76616c6964206f72207a65726f206164647265737342616469756d20546f6b656e3a206275726e2066726f6d20746865207a65726f2061646472657373a165627a7a723058205c0f914b6799a50cb127891edaced8124743e1235056245efa611115caca57620029",
  "source": "pragma solidity >=0.5.0 <0.6.0;\n\nimport \"./Ownable.sol\";\nimport \"./IEIP20.sol\";\n\ncontract Badium is IEIP20, Ownable {\n \n    uint256 constant MAX = ~uint256(0);\n    string constant COIN_NAME = \"Badium\";\n    string constant COIN_SYMBOL = \"BAD\";\n    uint256 constant INITIAL_TOTAL_SUPPLY = 10000000;\n    uint256 constant EXCHANGE_RATE = 0.01 ether;\n  \n    uint256 private currentCirculatorySystem;\n    uint256 private latestCirculatorySystem;\n    \n    //Represents holder addresses => cirulatorySystem => balance amounts\n    mapping(address => mapping(uint256 => uint256)) private balances;\n    //Represents current Circulatory System => total token\n    mapping(uint256 => uint256) private totalTokenSupply;\n    //Represent reciever address => active or inactive flag\n    mapping(address => bool) private allowedReceivers;\n    //Represents Sender address => Spender address => Max approved amount.\n    mapping(address => mapping(address => uint256)) private allowances;\n    \n  \n    constructor() public {\n        currentCirculatorySystem = 0;\n        latestCirculatorySystem = 0;\n        totalTokenSupply[currentCirculatorySystem] = INITIAL_TOTAL_SUPPLY;\n        balances[owner()][currentCirculatorySystem] = totalTokenSupply[currentCirculatorySystem];\n    }\n  \n    /**\n     * Returns the name of the token\n     */\n    function name() external view returns (string memory) {\n        return COIN_NAME;\n    }\n    /**\n     * Returns the symbol of the token. \n     */\n    function symbol() external view returns (string memory) {\n        return COIN_SYMBOL;\n    }\n    /** \n     * Returns the number of decimals the token uses - e.g. 8, means to divide the token amount by 100000000 to get its user representation.\n     * As per Ether & Wei relationship usually token are of value 18.\n     */\n    function decimals() external view returns (uint8) {\n        return 0;\n    }\n    /**\n     * Returns the total token supply.\n     */\n    function totalSupply() external view returns (uint256) {\n        return totalTokenSupply[currentCirculatorySystem];\n    }\n    /**\n     * Returns the account balance of holder account with address.\n     */\n    function balanceOf(address _holder) external view returns (uint256 balance) {\n        return balances[_holder][currentCirculatorySystem];\n    }\n     /**\n      * Transfers _value amount of tokens to address _to, and MUST fire the Transfer event.\n      * The function SHOULD throw if the message callers account balance does not have enough tokens to spend.\n      * Transfers of 0 values MUST be treated as normal transfers and fire the Transfer event.\n      */\n    function transfer(address _to, uint256 _value) external returns (bool success) {\n        _transfer(_msgSender(), _to, _value);\n        return true;\n    }\n    /**\n     * The transferFrom method is used for a withdraw workflow, allowing contracts to transfer tokens on your behalf. \n     * This can be used for example to allow a contract to transfer tokens on your behalf and/or to charge fees in sub-currencies. \n     * The function SHOULD throw unless the _from account has deliberately authorized the sender of the message via some mechanism.\n     * Emits an Approval event indicating the updated allowance.\n     */\n    function transferFrom(address _from, address _to, uint256 _value) external returns (bool success) {\n        _transfer(_from, _to, _value);\n        uint256 currentAllowance = allowances[_from][_msgSender()];\n        require(currentAllowance >= _value, \"Badium Token: transfer amount exceeds allowance\");\n        allowances[_from][_msgSender()] = currentAllowance - _value;\n        emit Approval(_from, _msgSender(), _value);\n        return true;\n    }\n    /**\n     * Allows _spender to withdraw from holder account multiple times, up to the _value amount. \n     * If this function is called again it overwrites the current allowance with _value\n     */\n    function approve(address _spender, uint256 _value) external returns (bool success) {\n        require(_spender != address(0), \"Badium Token: approve to the invalid or zero address\");\n        allowances[_msgSender()][_spender] = _value;\n        emit Approval(_msgSender(), _spender, _value);\n        return true;\n    }\n    /**\n     * Returns the amount which _spender is still allowed to withdraw from _owner or holder.\n     * The maximum amount that the spender is approved to transfer from the holder's tokens.\n     */\n    function allowance(address _holder, address _spender) external view returns (uint256 remaining) {\n        return allowances[_holder][_spender];\n    }\n    /**\n     * Adds the address to the list of allowed receivers.\n     */\n    function addReceiver(address receiver) external onlyOwner returns (bool) {\n        allowedReceivers[receiver] = true;\n        return true;\n    }\n    /**\n     * Removes or deactivate the given address from the list of approved receivers.\n     */\n    function removeReceiver(address receiver) external onlyOwner returns (bool) {\n        allowedReceivers[receiver] = false;\n        return true;\n    }\n    /**\n     * Increase total supply of Badium token.\n     * Specified amount is added to Owner's account\n     * Emits a Transfer event with 'from' set to the zero address.\n     */\n    function mint(uint256 _amount) external onlyOwner returns (bool) {\n        require(_amount <= MAX - totalTokenSupply[currentCirculatorySystem], \"Badium Token: Total supply exceeded max limit.\");\n        totalTokenSupply[currentCirculatorySystem] += _amount;\n        require(_amount <= MAX - balances[owner()][currentCirculatorySystem], \"Badium Token: Balance of owner exceeded max limit.\");\n        balances[owner()][currentCirculatorySystem] += _amount;\n        emit Transfer(address(0), owner(), _amount);\n        return true;\n    }\n    /**\n     * Burns specified amount of token from given holder's account\n     * Emits a Transfer event with 'to' set to the zero address.\n     */\n    function burn(address _holder, uint256 _amount) external onlyOwner returns (bool) {\n        require(_holder != address(0), \"Badium Token: burn from the zero address\");\n        uint256 accountBalance = balances[_holder][currentCirculatorySystem];\n        require(accountBalance >= _amount, \"Badium Token: burn amount exceeds balance of the holder\");\n        balances[_holder][currentCirculatorySystem] = accountBalance - _amount;\n        require(_amount <= totalTokenSupply[currentCirculatorySystem], \"Badium Token: Insufficient total supply.\");\n        totalTokenSupply[currentCirculatorySystem] -= _amount;\n        emit Transfer(_holder, address(0), _amount);\n        return true;\n    }\n    /**\n     * Burn all tokens in current circulatory system index\n     */\n    function burnAll() external onlyOwner returns (bool) {\n        require(1 <= MAX - latestCirculatorySystem, \"Badium Token: Circulatory System count limit exceeded.\");\n        latestCirculatorySystem ++;\n        currentCirculatorySystem = latestCirculatorySystem;\n        return true;\n    }\n    /**\n     * Returns current Badium Token circulatory system index\n     */\n    function getCurrentCirculatorySystem() external view returns (uint256) {\n        return currentCirculatorySystem;\n    }\n    /**\n     * Select any existing Badium Token circulatory system to switch between different circulatory systems\n     */\n    function selectCirculatorySystem(uint256 _index) external onlyOwner returns (bool) {\n        require(_index <= latestCirculatorySystem, \"Badium Token: Invalid circulatory system index\");\n        currentCirculatorySystem = _index;\n        return true;\n    }\n    /**\n     * Buy given amount of Badium token from Owner with given exchange rate of 0.01 ether.\n     * Bought tokens are credited to the message sender.\n     * Owner recieves the transferred ether balance from contract.\n     * Emits a Transfer event with Owner as sender & transaction initiator as receiver.\n     */\n    function buy(uint256 _amount) external payable returns (bool) {\n        require(_msgValue() > 0, \"Badium Token: Invalid Transaction\");\n        require(_msgValue() % EXCHANGE_RATE == 0 && _msgValue() / EXCHANGE_RATE == _amount, \"Badium Token: Invalid Transaction Value\");\n        \n        _transfer(owner(), _msgSender(), _amount);\n        uint256 balanceAmt = address(this).balance;\n        receiveFundToOwner(balanceAmt);\n        return true;\n    }\n    /**\n     * Internal method that returns msg.sender\n     */\n    function _msgSender() internal view returns (address) {\n        return msg.sender;\n    }\n    /**\n     * Internal method that returns msg.value\n     */\n    function _msgValue() internal view returns (uint256) {\n        return msg.value;\n    }\n    /**\n     * Internal method that does transfer Badium token from one account to another\n     */\n    function _transfer(address _sender, address _recipient, uint256 _amount) internal {\n        require(_sender != address(0), \"Badium Token: Invalid Sender Address\");\n        require(_recipient != address(0), \"Badium Token: Invalid Recipient Address\");\n        require(allowedReceivers[_recipient], \"Badium Token: Invalid receiver.\");\n        \n        uint256 balanceAmt = balances[_sender][currentCirculatorySystem];\n        require(balanceAmt >= _amount, \"Badium Token: Transfer amount exceeds balance of sender\");\n        require(_amount <= MAX - balances[_recipient][currentCirculatorySystem], \"Badium Token: Balance limit exceeded for Recipient.\");\n        \n        balances[_sender][currentCirculatorySystem] = balanceAmt - _amount;\n        balances[_recipient][currentCirculatorySystem] += _amount;\n        \n        emit Transfer(_sender, _recipient, _amount);\n    }\n  \n}\n",
  "sourcePath": "/home/kaustav_chakraborty_work/kaustav_chakraborty/BadiumCoin/contracts/Badium.sol",
  "compiler": {
    "name": "solc",
    "version": "0.5.4+commit.9549d8ff.Emscripten.clang"
  },
  "schemaVersion": "3.4.3",
  "updatedAt": "2021-09-21T18:11:58.509Z",
  "networkType": "ethereum",
  "devdoc": {
    "methods": {
      "isOwner()": {
        "details": "Returns true if the caller is the current owner."
      },
      "owner()": {
        "details": "Returns the address of the current owner."
      },
      "receiveFundToOwner(uint256)": {
        "details": "recieve ether funds to payable owner address"
      },
      "renounceOwnership()": {
        "details": "Leaves the contract without owner. It will not be possible to call `onlyOwner` functions anymore. Can only be called by the current owner.     * > Note: Renouncing ownership will leave the contract without an owner, thereby removing any functionality that is only available to the owner."
      },
      "transferOwnership(address)": {
        "details": "Transfers ownership of the contract to a new account (`newOwner`). Can only be called by the current owner."
      }
    }
  },
  "userdoc": {
    "methods": {
      "addReceiver(address)": {
        "notice": "Adds the address to the list of allowed receivers."
      },
      "allowance(address,address)": {
        "notice": "Returns the amount which _spender is still allowed to withdraw from _owner or holder. The maximum amount that the spender is approved to transfer from the holder's tokens."
      },
      "approve(address,uint256)": {
        "notice": "Allows _spender to withdraw from holder account multiple times, up to the _value amount.  If this function is called again it overwrites the current allowance with _value"
      },
      "balanceOf(address)": {
        "notice": "Returns the account balance of holder account with address."
      },
      "burn(address,uint256)": {
        "notice": "Burns specified amount of token from given holder's account Emits a Transfer event with 'to' set to the zero address."
      },
      "burnAll()": {
        "notice": "Burn all tokens in current circulatory system index"
      },
      "buy(uint256)": {
        "notice": "Buy given amount of Badium token from Owner with given exchange rate of 0.01 ether. Bought tokens are credited to the message sender. Owner recieves the transferred ether balance from contract. Emits a Transfer event with Owner as sender & transaction initiator as receiver."
      },
      "decimals()": {
        "notice": "Returns the number of decimals the token uses - e.g. 8, means to divide the token amount by 100000000 to get its user representation. As per Ether & Wei relationship usually token are of value 18."
      },
      "getCurrentCirculatorySystem()": {
        "notice": "Returns current Badium Token circulatory system index"
      },
      "mint(uint256)": {
        "notice": "Increase total supply of Badium token. Specified amount is added to Owner's account Emits a Transfer event with 'from' set to the zero address."
      },
      "name()": {
        "notice": "Returns the name of the token"
      },
      "removeReceiver(address)": {
        "notice": "Removes or deactivate the given address from the list of approved receivers."
      },
      "selectCirculatorySystem(uint256)": {
        "notice": "Select any existing Badium Token circulatory system to switch between different circulatory systems"
      },
      "symbol()": {
        "notice": "Returns the symbol of the token. "
      },
      "totalSupply()": {
        "notice": "Returns the total token supply."
      },
      "transfer(address,uint256)": {
        "notice": "Transfers _value amount of tokens to address _to, and MUST fire the Transfer event. The function SHOULD throw if the message callers account balance does not have enough tokens to spend. Transfers of 0 values MUST be treated as normal transfers and fire the Transfer event."
      },
      "transferFrom(address,address,uint256)": {
        "notice": "The transferFrom method is used for a withdraw workflow, allowing contracts to transfer tokens on your behalf.  This can be used for example to allow a contract to transfer tokens on your behalf and/or to charge fees in sub-currencies.  The function SHOULD throw unless the _from account has deliberately authorized the sender of the message via some mechanism. Emits an Approval event indicating the updated allowance."
      }
    }
  }
}